10085100005555206PE040120260508REE                                                                                              
20046CA00100699733000000001506700000000000                                                                                      
20085CA00004384731000000001506700000000000                                                                                      
20085CA00004591782000000001506700000000000                                                                                      
20085CA00004378558000000001506700000000000                                                                                      
20059CA06590422581000000001506700000000000                                                                                      
20085CA00007061200000000001506700000000000                                                                                      
20066CA00160826807000000001506700000000000                                                                                      
20059CA06590321963000000001506700000000000                                                                                      
20096CA06000251080000000001506700000000000                                                                                      
20100CA00112672176000000001506700000000000                                                                                      
20928CA00111267217000000001506700000000000                                                                                      
20085CA00004381763000000001506700000000000                                                                                      
20085CA00004737207000000001506700000000000                                                                                      
20016CA00740432693000000001506700000000000                                                                                      
20059CA06590438344000000001506700000000000                                                                                      
20059CA06590408709000000001506700000000000                                                                                      
20096CA06000246480000000001506700000000000                                                                                      
23219CA00901272937000000001506700000000000                                                                                      
20096CA06000242679000000001506700000000000                                                                                      
20085CA00004960920000000001506700000000000                                                                                      
20000CA00000000000000000001506700000000000                                                                                      
20170CA09999400000000000001506700000000000                                                                                      
21098CA06010474477000000001506700000000000                                                                                      
20096CA06000250834000000001506700000000000                                                                                      
21267CA00840966243000000001506700000000000                                                                                      
20085CA00005136317000000001506700000000000                                                                                      
22650CA03907839177000000001506700000000000                                                                                      
22650CA03907839153000000001506700000000000                                                                                      
20085CA00004374747000000001506700000000000                                                                                      
20543CA00111409401000000001506700000000000                                                                                      
22410CA00330425335000000001506700000000000                                                                                      
22962CA09601805700000000001506700000000000                                                                                      
20085CA00003328615000000001506700000000000                                                                                      
20050CA00120990689000000001506700000000000                                                                                      
20085CA00002155104000000001506700000000000                                                                                      
20085CA00004377890000000001506700000000000                                                                                      
20085CA00007004395000000001506700000000000                                                                                      
20096CA06000292322000000001506700000000000                                                                                      
23070CA04531278983000000001506700000000000                                                                                      
20066CA00161812766000000001506700000000000                                                                                      
20085CA00006442750000000001506700000000000                                                                                      
20085CA00006797874000000001506700000000000                                                                                      
20085CA00004374655000000001506700000000000                                                                                      
20085CA00004370363000000001506700000000000                                                                                      
20048CA00111061323000000001506700000000000                                                                                      
20074CA00181692971000000001506700000000000                                                                                      
20085CA00006796840000000001506700000000000                                                                                      
24309CA00947050153000000001506700000000000                                                                                      
20085CA00006796871000000001506700000000000                                                                                      
20066CA00161814885000000001506700000000000                                                                                      
20066CA00161814885000000001506700000000000                                                                                      
20085CA00006720715000000001506700000000000                                                                                      
23200CA04744960163000000001506700000000000                                                                                      
20085CA00006429933000000001506700000000000                                                                                      
20085CA00006352433000000001506700000000000                                                                                      
20085CA00004389194000000001506700000000000                                                                                      
22120CA03091409408000000001506700000000000                                                                                      
24029CA00002572413000000001506700000000000                                                                                      
20011CA00201120459000000001506700000000000                                                                                      
20085CA00004347965000000001506700000000000                                                                                      
20059CA06590412085000000001506700000000000                                                                                      
20720CA07602880000000000001506700000000000                                                                                      
20270CA00281200379000000001506700000000000                                                                                      
20085CA00005525083000000001506700000000000                                                                                      
20085CA00004369758000000001506700000000000                                                                                      
23200CA04741914668000000001506700000000000                                                                                      
20085CA00004987404000000001506700000000000                                                                                      
20050CA00120986174000000001506700000000000                                                                                      
20085CA00004592006000000001506700000000000                                                                                      
20059CA06590368609000000001506700000000000                                                                                      
20085CA00004285133000000001506700000000000                                                                                      
20085CA00004537883000000001506700000000000                                                                                      
20110CA00747330007000000001506700000000000                                                                                      
20059CA06590425801000000001506700000000000                                                                                      
20059CA06590427319000000001506700000000000                                                                                      
20085CA00003450727000000001506700000000000                                                                                      
20085CA00003252729000000001506700000000000                                                                                      
20085CA00005476060000000001506700000000000                                                                                      
20085CA00004967570000000001506700000000000                                                                                      
20085CA00004789062000000001506700000000000                                                                                      
20085CA00006380324000000001506700000000000                                                                                      
20085CA00004605515000000001506700000000000                                                                                      
20005CA00440003654000000001506700000000000                                                                                      
20085CA00005516498000000001506700000000000                                                                                      
20059CA06590828426000000001506700000000000                                                                                      
20085CA00007347184000000001506700000000000                                                                                      
20110CA05995300000000000001506700000000000                                                                                      
20005CA00440167345000000001506700000000000                                                                                      
20000CA00029020010000000001506700000000000                                                                                      
20046CA00100781001000000001506700000000000                                                                                      
20085CA00006973607000000001506700000000000                                                                                      
20085CA00005513574000000001506700000000000                                                                                      
20085CA00004369185000000001506700000000000                                                                                      
21130CA01309243336000000001506700000000000                                                                                      
20085CA00004465920000000001506700000000000                                                                                      
20085CA00006975573000000001506700000000000                                                                                      
20046CA00101328496000000001506700000000000                                                                                      
20059CA06590441870000000001506700000000000                                                                                      
20096CA06000305053000000001506700000000000                                                                                      
20085CA00004384649000000001506700000000000                                                                                      
20085CA00005172180000000001506700000000000                                                                                      
20085CA00005321421000000001506700000000000                                                                                      
20085CA00004492047000000001506700000000000                                                                                      
20046CA00100790207000000001506700000000000                                                                                      
20059CA06590764285000000001506700000000000                                                                                      
20046CA00100699597000000001506700000000000                                                                                      
20085CA00004429133000000001506700000000000                                                                                      
20059CA06590484897000000001506700000000000                                                                                      
20140CA01895035206000000001506700000000000                                                                                      
22120CA03091762794000000001506700000000000                                                                                      
20059CA06590516527000000001506700000000000                                                                                      
29210CA00460491224000000001506700000000000                                                                                      
20046CA00100741038000000001506700000000000                                                                                      
20059CA06590297930000000001506700000000000                                                                                      
20085CA00005311963000000001506700000000000                                                                                      
20070CA00504300040000000001506700000000000                                                                                      
20074CA00181152279000000001506700000000000                                                                                      
20048CA00110856249000000001506700000000000                                                                                      
20066CA00161325044000000001506700000000000                                                                                      
20085CA00007016064000000001506700000000000                                                                                      
20066CA00161837138000000001506700000000000                                                                                      
21111CA02222233344000000001506700000000000                                                                                      
20059CA06590213718000000001506700000000000                                                                                      
20085CA00004378510000000001506700000000000                                                                                      
20066CA00161348144000000001506700000000000                                                                                      
23219CA00901949194000000001506700000000000                                                                                      
20059CA06590871581000000001506700000000000                                                                                      
20085CA00004367875000000001506700000000000                                                                                      
23219CA00901246257000000001506700000000000                                                                                      
23219CA00901246080000000001506700000000000                                                                                      
23219CA00901246066000000001506700000000000                                                                                      
20040CA06230240729000000001506700000000000                                                                                      
20091CA06560240645000000001506700000000000                                                                                      
20110CA04008300400000000001506700000000000                                                                                      
20059CA06590360605000000001506700000000000                                                                                      
23020CA04443540284000000001506700000000000                                                                                      
20085CA00004390273000000001506700000000000                                                                                      
20085CA00007338308000000001506700000000000                                                                                      
20085CA00005048423000000001506700000000000                                                                                      
20059CA06590537386000000001506700000000000                                                                                      
20066CA00161732839000000001506700000000000                                                                                      
20085CA00004347859000000001506700000000000                                                                                      
20059CA06590870601000000001506700000000000                                                                                      
20110CA06592300659000000001506700000000000                                                                                      
23245CA00400980647000000001506700000000000                                                                                      
20059CA06590425696000000001506700000000000                                                                                      
23245CA00401118531000000001506700000000000                                                                                      
20085CA00005424816000000001506700000000000                                                                                      
20085CA00004388856000000001506700000000000                                                                                      
20059CA06590290212000000001506700000000000                                                                                      
23240CA04782881929000000001506700000000000                                                                                      
20110CA04749300474000000001506700000000000                                                                                      
20000CA00000000000000000001506700000000000                                                                                      
22605CA06340338142000000001506700000000000                                                                                      
20087CA06540360181000000001506700000000000                                                                                      
20046CA00100815430000000001506700000000000                                                                                      
20085CA00004386102000000001506700000000000                                                                                      
21234CA00790336587000000001506700000000000                                                                                      
20096CA06000237956000000001506700000000000                                                                                      
20085CA00004754910000000001506700000000000                                                                                      
20066CA00161208082000000001506700000000000                                                                                      
22150CA00291373531000000001506700000000000                                                                                      
23853CA07150315729000000001506700000000000                                                                                      
23853CA07150315590000000001506700000000000                                                                                      
23853CA07150315590000000001506700000000000                                                                                      
23219CA00901272685000000001506700000000000                                                                                      
20096CA06000250896000000001506700000000000                                                                                      
23245CA00400980517000000001506700000000000                                                                                      
20096CA06000243979000000001506700000000000                                                                                      
23245CA00401122053000000001506700000000000                                                                                      
20085CA00004987725000000001506700000000000                                                                                      
20085CA00005058158000000001506700000000000                                                                                      
20022CA00040217053000000001506700000000000                                                                                      
20085CA00004379131000000001506700000000000                                                                                      
20059CA06590429568000000001506700000000000                                                                                      
20059CA06590429858000000001506700000000000                                                                                      
20059CA06590428602000000001506700000000000                                                                                      
20059CA06590887061000000001506700000000000                                                                                      
20059CA06590858702000000001506700000000000                                                                                      
20059CA06590437242000000001506700000000000                                                                                      
20085CA00004988537000000001506700000000000                                                                                      
20059CA06590429469000000001506700000000000                                                                                      
20085CA00006359304000000001506700000000000                                                                                      
20059CA06590738598000000001506700000000000                                                                                      
20085CA00007240872000000001506700000000000                                                                                      
23240CA04783978345000000001506700000000000                                                                                      
21387CA06080386713000000001506700000000000                                                                                      
23070CA04533713633000000001506700000000000                                                                                      
20085CA00004329402000000001506700000000000                                                                                      
20085CA00004503109000000001506700000000000                                                                                      
20085CA00003799033000000001506700000000000                                                                                      
23070CA04532793618000000001506700000000000                                                                                      
20059CA06590381198000000001506700000000000                                                                                      
20085CA00004571834000000001506700000000000                                                                                      
20059CA06590204338000000001506700000000000                                                                                      
23315CA04882100210000000001506700000000000                                                                                      
20096CA06000251141000000001506700000000000                                                                                      
20046CA00101257901000000001506700000000000                                                                                      
20085CA00002863177000000001506700000000000                                                                                      
23270CA04821894381000000001506700000000000                                                                                      
20085CA00005442140000000001506700000000000                                                                                      
20096CA06000236076000000001506700000000000                                                                                      
20059CA06590891750000000001506700000000000                                                                                      
20085CA00004386911000000001506700000000000                                                                                      
23850CA00430487789000000001506700000000000                                                                                      
20085CA00004001825000000001506700000000000                                                                                      
20085CA00004318620000000001506700000000000                                                                                      
20085CA00004723051000000001506700000000000                                                                                      
20085CA00004539988000000001506700000000000                                                                                      
20085CA00004376002000000001506700000000000                                                                                      
20085CA00004379452000000001506700000000000                                                                                      
20110CA05995300000000000001506700000000000                                                                                      
20085CA00007343021000000001506700000000000                                                                                      
20059CA06590432643000000001506700000000000                                                                                      
20085CA00004997153000000001506700000000000                                                                                      
20085CA00006793568000000001506700000000000                                                                                      
20085CA00004987961000000001506700000000000                                                                                      
20085CA00004586465000000001506700000000000                                                                                      
20085CA00004386867000000001506700000000000                                                                                      
20085CA00007111769000000001506700000000000                                                                                      
20085CA00004384021000000001506700000000000                                                                                      
20085CA00005243910000000001506700000000000                                                                                      
20087CA06540158418000000001506700000000000                                                                                      
20059CA06590239206000000001506700000000000                                                                                      
20085CA00004595791000000001506700000000000                                                                                      
23700CA05461138741000000001506700000000000                                                                                      
20059CA06590462684000000001506700000000000                                                                                      
20085CA00002716679000000001506700000000000                                                                                      
20087CA06540158395000000001506700000000000                                                                                      
20087CA06540185627000000001506700000000000                                                                                      
20059CA06590376154000000001506700000000000                                                                                      
29014CA00690332263000000001506700000000000                                                                                      
20015CA06520270400000000001506700000000000                                                                                      
23330CA04918648347000000001506700000000000                                                                                      
23120CA04631955302000000001506700000000000                                                                                      
23200CA04741928555000000001506700000000000                                                                                      
20085CA00004537845000000001506700000000000                                                                                      
20085CA00006919258000000001506700000000000                                                                                      
21570CA02130021733000000001506700000000000                                                                                      
20085CA00004708276000000001506700000000000                                                                                      
20085CA00004378466000000001506700000000000                                                                                      
20085CA00004595784000000001506700000000000                                                                                      
20085CA00004967020000000001506700000000000                                                                                      
20085CA00004743206000000001506700000000000                                                                                      
20085CA00004591935000000001506700000000000                                                                                      
20085CA00004592327000000001506700000000000                                                                                      
20085CA00004357843000000001506700000000000                                                                                      
20059CA06590785914000000001506700000000000                                                                                      
20085CA00006364850000000001506700000000000                                                                                      
20085CA00002532064000000001506700000000000                                                                                      
20085CA00005065921000000001506700000000000                                                                                      
20085CA00004521068000000001506700000000000                                                                                      
20085CA00004605546000000001506700000000000                                                                                      
20016CA00740396427000000001506700000000000                                                                                      
20085CA00004571285000000001506700000000000                                                                                      
20085CA00004964069000000001506700000000000                                                                                      
20087CA06540155990000000001506700000000000                                                                                      
20085CA00004386461000000001506700000000000                                                                                      
20085CA00004367431000000001506700000000000                                                                                      
20085CA00002769895000000001506700000000000                                                                                      
20085CA00002769895000000001506700000000000                                                                                      
20046CA00100690972000000001506700000000000                                                                                      
20085CA00004793010000000001506700000000000                                                                                      
20016CA00740464364000000001506700000000000                                                                                      
20000CA00000000000000000001506700000000000                                                                                      
20085CA00004379858000000001506700000000000                                                                                      
20085CA00004589051000000001506700000000000                                                                                      
23315CA04882375179000000001506700000000000                                                                                      
20059CA06590498418000000001506700000000000                                                                                      
20085CA00006984847000000001506700000000000                                                                                      
20087CA06540270901000000001506700000000000                                                                                      
20085CA00005200436000000001506700000000000                                                                                      
20085CA00004610696000000001506700000000000                                                                                      
20085CA00004384717000000001506700000000000                                                                                      
20096CA06000251097000000001506700000000000                                                                                      
20059CA06590480772000000001506700000000000                                                                                      
20085CA00004592037000000001506700000000000                                                                                      
20085CA00004391597000000001506700000000000                                                                                      
21790CA02622036722000000001506700000000000                                                                                      
20085CA00005287879000000001506700000000000                                                                                      
20085CA00004332693000000001506700000000000                                                                                      
21130CA01308480299000000001506700000000000                                                                                      
20085CA00004373867000000001506700000000000                                                                                      
20085CA00004578576000000001506700000000000                                                                                      
20088CA00220594769000000001506700000000000                                                                                      
20085CA00002662774000000001506700000000000                                                                                      
20085CA00002532064000000001506700000000000                                                                                      
20046CA00100789166000000001506700000000000                                                                                      
20050CA00120989357000000001506700000000000                                                                                      
20085CA00006553928000000001506700000000000                                                                                      
20059CA06590402473000000001506700000000000                                                                                      
22150CA00291373531000000001506700000000000                                                                                      
20085CA00005402085000000001506700000000000                                                                                      
20016CA00740394780000000001506700000000000                                                                                      
20085CA00004589273000000001506700000000000                                                                                      
20046CA00100699931000000001506700000000000                                                                                      
20085CA00004379841000000001506700000000000                                                                                      
20085CA00002728010000000001506700000000000                                                                                      
21570CA02130021740000000001506700000000000                                                                                      
20059CA06590427920000000001506700000000000                                                                                      
23120CA04632069516000000001506700000000000                                                                                      
20046CA00100815430000000001506700000000000                                                                                      
20085CA00005265130000000001506700000000000                                                                                      
20085CA00004793003000000001506700000000000                                                                                      
20085CA00004379834000000001506700000000000                                                                                      
20085CA00006864350000000001506700000000000                                                                                      
20088CA00220593896000000001506700000000000                                                                                      
20059CA06590231028000000001506700000000000                                                                                      
20085CA00005525106000000001506700000000000                                                                                      
20085CA00005318353000000001506700000000000                                                                                      
20085CA00004595708000000001506700000000000                                                                                      
20015CA06520404683000000001506700000000000                                                                                      
21440CA02300707588000000001506700000000000                                                                                      
20085CA00005398269000000001506700000000000                                                                                      
20007CA00260088767000000001506700000000000                                                                                      
20017CA06160259557000000001506700000000000                                                                                      
20066CA00160664054000000001506700000000000                                                                                      
20085CA00004375849000000001506700000000000                                                                                      
20085CA00003603039000000001506700000000000                                                                                      
20085CA00004589013000000001506700000000000                                                                                      
20085CA00006349556000000001506700000000000                                                                                      
20059CA06590829528000000001506700000000000                                                                                      
20085CA00004891240000000001506700000000000                                                                                      
21202CA08220157588000000001506700000000000                                                                                      
20059CA06590788005000000001506700000000000                                                                                      
20085CA00004375658000000001506700000000000                                                                                      
20085CA00004736563000000001506700000000000                                                                                      
23330CA04918995924000000001506700000000000                                                                                      
20085CA00004382025000000001506700000000000                                                                                      
20085CA00004964076000000001506700000000000                                                                                      
23853CA07150270402000000001506700000000000                                                                                      
20059CA06590453600000000001506700000000000                                                                                      
20046CA00100783984000000001506700000000000                                                                                      
20070CA00170481032000000001506700000000000                                                                                      
23200CA04741673202000000001506700000000000                                                                                      
20096CA06000443461000000001506700000000000                                                                                      
20085CA00005433692000000001506700000000000                                                                                      
20085CA00007003217000000001506700000000000                                                                                      
20059CA06590524492000000001506700000000000                                                                                      
20059CA06590368609000000001506700000000000                                                                                      
20085CA00004384656000000001506700000000000                                                                                      
23200CA04744048285000000001506700000000000                                                                                      
20085CA00005046489000000001506700000000000                                                                                      
23630CA05351299866000000001506700000000000                                                                                      
20085CA00002430337000000001506700000000000                                                                                      
20048CA00110853806000000001506700000000000                                                                                      
22400CA03561035612000000001506700000000000                                                                                      
22710CA04001241787000000001506700000000000                                                                                      
20050CA00120986235000000001506700000000000                                                                                      
23853CA07150315736000000001506700000000000                                                                                      
20085CA00007005527000000001506700000000000                                                                                      
20085CA00004568612000000001506700000000000                                                                                      
20007CA00260076517000000001506700000000000                                                                                      
20085CA00004988308000000001506700000000000                                                                                      
20085CA00005255542000000001506700000000000                                                                                      
20085CA00007334689000000001506700000000000                                                                                      
20085CA00004987602000000001506700000000000                                                                                      
20085CA00004985804000000001506700000000000                                                                                      
20017CA06160214107000000001506700000000000                                                                                      
20059CA06590828822000000001506700000000000                                                                                      
20059CA06590456876000000001506700000000000                                                                                      
20085CA00006973720000000001506700000000000                                                                                      
20085CA00007243208000000001506700000000000                                                                                      
20085CA00004480798000000001506700000000000                                                                                      
20085CA00005447602000000001506700000000000                                                                                      
20085CA00006319669000000001506700000000000                                                                                      
20087CA06540215597000000001506700000000000                                                                                      
20085CA00004379735000000001506700000000000                                                                                      
20012CA06270188172000000001506700000000000                                                                                      
21033CA07230998402000000001506700000000000                                                                                      
20096CA06000236076000000001506700000000000                                                                                      
20016CA00740387412000000001506700000000000                                                                                      
20085CA00004986005000000001506700000000000                                                                                      
20059CA06590429520000000001506700000000000                                                                                      
21130CA01308708654000000001506700000000000                                                                                      
20085CA00004997986000000001506700000000000                                                                                      
20096CA06000250742000000001506700000000000                                                                                      
20085CA00007663598000000001506700000000000                                                                                      
20046CA00101384285000000001506700000000000                                                                                      
22910CA04299998462000000001506700000000000                                                                                      
20085CA00004987718000000001506700000000000                                                                                      
20046CA00101306702000000001506700000000000                                                                                      
3000000005755594000382000000000000000000000                                                                                     